:020000040800F2
:10000000B0C70020B101000897290008B502000818
:10001000952900086B0400085D49000800000000F5
:10002000000000000000000000000000E52D0008B6
:10003000790500080000000003020008F12D000807
:10004000CB010008CB010008CB010008CB01000860
:10005000CB010008CB010008CB010008CB01000850
:10006000CB010008CB010008CB010008CB01000840
:10007000CB010008CB010008CB010008CB01000830
:10008000CB010008CB010008CB01000800000000F4
:10009000000000000000000000000000CB0100088C
:1000A000CB010008CB010008CB010008CB01000800
:1000B000CB010008CB010008CB010008CB010008F0
:1000C000CB010008CB010008CB010008CB010008E0
:1000D000CB010008CB010008CB01000800000000A4
:1000E000CB010008CB010008CB0100080000000094
:1000F000000000000000000000000000CB0100082C
:1001000000000000CB010008CB010008CB01000873
:1001100000000000000000000000000000000000DF
:10012000CB010008CB010008CB010008CB0100087F
:10013000CB010008000000000000000000000000EB
:10014000000000000000000000000000BD2B0008BF
:10015000CB010008BD040008CB010008CB0100085A
:10016000CB010008CB0100080000000000000000E7
:10017000000000000000000000000000000000007F
:1001800000000000CB01000800000000000000009B
:10019000CB010008CB010008DFF810D000F028F9EF
:1001A00000480047194D0008AFF30080B0C7002099
:1001B0000648804706480047FEE7FEE7FEE7FEE701
:1001C000FEE7FEE7FEE7FEE7FEE7FEE7892E000812
:1001D00099010008EFF3108072B6704780F3108821
:1001E0007047424A1368012B04D04FF0010313609B
:1001F0003F4A10603F4A11603F484FF08051016014
:100200007047EFF3108272B63848016851B34FF06F
:10021000000101603648016891B1EFF309811EF0D9
:10022000100F08BF21ED108B21E9F00F4FF00004F3
:100230001EF0100F08BF012441F8044D0068016052
:100240002C490968096808C9B1E8F00F002B18BFEC
:10025000B1EC108B81F309884EF0100E002B18BF03
:100260002EF0100E82F310884EF0040E70472149D4
:100270000860EFF3148222F0040282F314881C4910
:100280004FF00000086019494FF0010008601B485A
:100290001B49D0F8002041EA0201016016484FF0E6
:1002A0008051016017480068006880F3088861B6D3
:1002B00062B670471EF0040F0CBFEFF30880EFF337
:1002C000098020E9F00F40F804ED40F804ED1EF03D
:1002D000040F0CBF80F3088880F3098800B505F08F
:1002E00027F85DF804EB4EF0040E70471000002074
:1002F000080000200C00002004ED00E020ED00E0EC
:100300000000FFFF08ED00E02DE9F05F054600204A
:1003100092469B4688460646814640241BE0284676
:1003200041464746224600F053F853465A46C01A03
:10033000914110D311461846224600F03AF82D1A82
:1003400067EB01084F4622460120002100F031F8FA
:1003500017EB00094E41201EA4F10104DFDC4846E2
:1003600031462A464346BDE8F09F40EA01039B0719
:1003700003D009E008C9121F08C0042AFAD203E01A
:1003800011F8013B00F8013B521EF9D27047D2B27E
:1003900001E000F8012B491EFBD270470022F6E76E
:1003A00010B513460A4604461946FFF7F0FF2046EB
:1003B00010BD202A04DB203A00FA02F10020704729
:1003C0009140C2F1200320FA03F319439040704793
:1003D000202A04DB203A21FA02F00021704721FA9A
:1003E00002F3D040C2F12002914008431946704701
:1003F000064C074D06E0E06840F0010394E8070072
:1004000098471034AC42F6D3FFF7CAFEE4820008E6
:100410000483000870B58C1810F8015B15F0070311
:1004200001D110F8013B2A1106D110F8012B03E08D
:1004300010F8016B01F8016B5B1EF9D12B0705D495
:100440000023521E0DD401F8013BFAE710F8013BDE
:10045000CB1A921C03E013F8015B01F8015B521EFA
:10046000F9D5A142D8D3002070BDFEE70020704727
:100470000020704710B500220449054802F0C5FF6E
:100480000449034802F0B8FF002010BD8499002001
:10049000B48C00208491002010B5044606F0BCFD09
:1004A0002146044802F0A8FF024802F08AFF00201B
:1004B00010BD0000B48C00200020704710B505F07E
:1004C0005DF8034800F05AF8BDE8104005F074B834
:1004D000EC89002001681823CAB2103AB2FBF3F28B
:1004E000054B6FF30901032A9B5CC36500D9091D05
:1004F00081650846704700008277000810B5014604
:1005000000208B698A6A4FF0C07453B1B3F5005F65
:1005100015D072B1012A0CD0022A0AD0032A09D1BF
:1005200004E01AB1012A06D0022A03D1C96AC9011E
:1005300000D5012010BDC96AA142FAD010BD002A21
:10054000F7D0012AF2D0022AF3D0032AF3D010BD4B
:1005500030B50468256825F480252560046863604B
:100560008368402B036803D099600068C26030BD87
:100570009A600068C16030BD704770472DE9F8434C
:1005800004464FF00009CDF8009063484FF416512F
:10059000A56D0068B0FBF1F72E6894F85C10082098
:1005A00000FA01F131420FD021680A6852070BD5D9
:1005B0000A6822F004020A6094F85C108840A8607F
:1005C000606D40F00100606594F85C104FF0010828
:1005D00008FA01F0304208D021684969090604D5BB
:1005E000A860606D40F00200606594F85C10042023
:1005F0008840304208D021680968890704D5A8607E
:10060000606D40F00400606594F85C101020884034
:10061000304218D021680968090714D5A8602068FD
:100620000168490304D50068000308D5A16C07E000
:100630000168C90503D4016821F008010160216C3B
:1006400009B12046884794F85C1020208840304249
:1006500031D021680968C9062DD5A86094F8350005
:1006600005282068016806D0490347D500680003C3
:100670001DD4616C1CE021F0160101602068416905
:1006800021F080014161206C08B9A06C20B1206884
:10069000016821F00801016094F85C103F20884057
:1006A000A86084F8349084F83580216D1FE0E16BF8
:1006B00009B120468847606D00282BD0606DC007C7
:1006C00014D0052084F835002068016821F001016C
:1006D00001600098401C0090B84203D82068006870
:1006E000C007F6D184F8349084F83580E16C002995
:1006F00010D001B02046BDE8F04308470168C905A5
:10070000D5D4016821F01001016084F8349084F898
:100710003580CCE7BDE8F883340100202DE9F041B5
:10072000044600F09DF906465CB1002584F834507B
:10073000022084F835002068016821F00101016081
:100740000DE00120BDE8F08100F08AF9801B05284A
:1007500005D920206065032084F83500F2E7206881
:100760000068C007F0D12268116820480140D4E930
:1007700001031843D4E9033633431843636918432C
:10078000A3691843E3691843236A18430843616A5D
:10079000042903D1D4E90B131943084310602068DE
:1007A0004069666A20F0070130460E43012704289D
:1007B0000CD1A06A0643E06A40B12046FFF79EFED6
:1007C00020B14020606584F83570BAE72068466142
:1007D0002046FFF77FFE94F85C203F219140816026
:1007E000656584F835700020ACE700003F8010F0AC
:1007F0002DE9F0410446866D90F83400002501286B
:100800000DD0012084F8340094F835700020012FB9
:1008100007D084F8340002252846BDE8F081022084
:10082000FBE7022784F8357060652046FFF790FEED
:1008300094F85C103F208840B0602068016841F067
:1008400016010160206C20B12068016841F00801A8
:1008500001602068016841F001010160DCE70000EF
:1008600070B5044600F0FCF80546601C02D0044850
:100870000078044400F0F4F8401BA042FAD370BDA5
:10088000280100202DE9F84FDFF8B4A1002201244F
:100890000AF1040B03254FF00F090BF1040E00BF02
:1008A0000B6804FA02F63340B34272D10F7907F0B5
:1008B0000307012F01D0022F16D187684FEA4208A3
:1008C00005FA08FC27EA0C07D1F80CC00CFA08FC62
:1008D0004CEA070CC0F808C04768B7430E79C6F366
:1008E000001696403E4346600E79F643B6070DD09B
:1008F000C768560005FA06FC27EA0C07D1F808C0BD
:100900000CFA06FC4CEA070CC0F80CC00E7906F095
:100910000306022E10D1D60800EB8608D8F8206016
:1009200057074FEAD76C09FA0CF7BE430F6907FA6D
:100930000CF73743C8F8207006684FEA420C05FAF6
:100940000CF7BE430F7907F0030707FA0CF737439C
:1009500007604E68F6006DD53A4E376847F4804719
:100960003760366822F0030706F480460096364E5C
:1009700007EB060CDCF8086897073F0F09FA07F841
:1009800026EA0806DFF8C480404503D14FF000088E
:100990001EE04FE0DFF8B880404502D14FF001087B
:1009A00016E0DFF8B080404502D14FF002080FE0BA
:1009B000DFF8A480404502D14FF0030808E0DFF8DB
:1009C0009C80404502D14FF0040801E04FF0070839
:1009D00008FA07F848EA0608CCF80888DAF8006050
:1009E0005746D1F804C09E435FEACC3C00D51E4375
:1009F0003E60DBF800605F46D1F804C09E435FEACA
:100A00008C3C00D51E433E60DEF800607746D1F88E
:100A100004C09E435FEACC2C00D51E433E60084FC5
:100A20000C373E68D1F804C09E435FEA8C2C00D599
:100A30001E433E60521C102AFFF432AFBDE8F88F0F
:100A4000003C0140443802400030014000000240B8
:100A50000004024000080240000C02400010024066
:100A600001488068704700002801002070B504002C
:100A700025D094F83D00002520B984F83C5020464C
:100A800000F050F9242084F83D002068016821F02E
:100A9000010101602068016841F4004101602068A3
:100AA000016821F40041016000F048FF4D4A61688F
:100AB000914201D84C4900E04C49884201D20120C2
:100AC00070BD4B492368B0FBF1F15E6826F03F062C
:100AD0000E435E606368934206D94FF496735943A0
:100AE0004FF47A73B1FBF3F12368491C1E6A26F0B8
:100AF0003F06314319626168914210D84900401E97
:100B0000B0FBF1F2521CC2F30B02042A01D2042002
:100B100022E0B0FBF1F0401CC0F30B001CE0A26827
:100B2000F2B301EBC10303EB0116431EB3FBF6F373
:100B30005B1C43F480431B0549D092B301EBC10217
:100B400002EB0111401EB0FBF1F0401CC0F30B00A2
:100B500040F4804040F400402168CA694CF6FF73BD
:100B60009A431043C861D4E9071001432068026822
:100B700022F0C00211430160D4E90301014320685F
:100B8000826848F2FF339A4311438160D4E905013A
:100B900008432168CA6822F0FF021043C86001E0E0
:100BA0000EE016E02068016841F001010160256453
:100BB000202084F83D00256384F83E50002070BD5D
:100BC00001EB4106431EB3FBF6F35B1CB3E70120C8
:100BD000C2E701EB4101401EB0FBF1F0401CC0F345
:100BE0000B00B7E7A086010080841E0000093D00CD
:100BF00040420F002DE9FF4F83B09A46DDE911977F
:100C000093460446DDF84080FFF72AFF054694F836
:100C10003D0020287FD1192301224049204600951C
:100C200001F0B2FC002876D194F83C00012872D083
:100C3000012084F83C0020680168C90703D10168DD
:100C400041F0010101602068016821F40061016048
:100C5000212084F83D00402084F83E0000262664D0
:100C6000C4F82480A4F82A90608D20852C48E06286
:100C7000CDE9007553465A462046049901F00AFC16
:100C800070B930E02A463946204601F0FCFC58B1E4
:100C9000206C042804D12068016841F400710160CF
:100CA000012007B0BDE8F08F606A21680078086114
:100CB000606A401C6062218D491E89B22185628D67
:100CC000521E628522685369DB435B070BD469B10E
:100CD00000781061606A401C6062208D401E208593
:100CE000608D401E6085208D0028CBD12A46394674
:100CF000204601F023FC0028CAD154F83D0B0168BE
:100D000041F400710160202004F81E09E67766773F
:100D10000020C6E7FFE70220C3E700000200100042
:100D20000000FFFFF0B587B0044614216846FFF7C6
:100D300035FB18492068884229D11748016841F0DD
:100D4000020101600068122400F0020005904FF4D7
:100D50008060012503268DE8710004200F4F049068
:100D600069463846FFF78EFD08208DE8710009209E
:100D7000049069463846FFF785FD07481030016842
:100D800041F480010160006800F48000059007B024
:100D9000F0BD00000058004030380240000402401E
:100DA0000248816802781144816070472801002060
:100DB0000B4810B5016841F400710160016841F40D
:100DC00080610160016841F480710160032000F0DE
:100DD0006FF8002000F006F800F024F8002010BDA5
:100DE000003C024070B50D4D04464FF47A712878EE
:100DF000B1FBF0F00A490968B1FBF0F000F096FF92
:100E000048B9102C07D200222146501E00F030F8BD
:100E100000206C6070BD012070BD00002801002022
:100E2000340100200A4808B5016841F4804101609E
:100E3000006800F4804000900548001F016841F000
:100E400080510160006800F08050009008BD0000F3
:100E500044380240002809DB00F01F0201219140C4
:100E60004009800000F1E020C0F800117047000048
:100E7000F0B40E4B1B680C46C3F30223C3F1070505
:100E8000042D00D90425191D072901D2002300E0F3
:100E9000DB1E012606FA05F1491E214099409E40BD
:100EA000761E16403143F0BC03F0C0BD0CED00E0EF
:100EB000064900F0070208684FF6FF03184040EAB1
:100EC0000220034A10430860704700000CED00E068
:100ED0000000FA0570470068416200207047F0B5D5
:100EE0000368586A39B19C6A4FF4827600EB144467
:100EF00000204D1E0AE040EA024098620FE006EB37
:100F00008007DF59401C04EB1744C0B2A842F6D357
:100F100044EA02404FF4807202EB810158500020F5
:100F2000F0BDD0F8040402F0F5BCC1EBC10200EB47
:100F30008202D0F80404926C02F062BCC1EBC102E0
:100F400000EB8202D0F80404D2F8082202F0ACBC14
:100F5000D0F8040402F0E0BC70B504460B0601F0C2
:100F60000F00C0EBC00104EB81014FF001024FF014
:100F7000000503D581F83D203C3103E081F8FD51A7
:100F800001F5FE71087094F8BC03012808D084F8BC
:100F9000BC23206803F07AF884F8BC53002070BDAD
:100FA000022070BD70B5044601F00F0062689042E7
:100FB00001D9012070BD0B0601F00F01C1EBC10189
:100FC00004EB81014FF001024FF0000503D581F8D9
:100FD0003D203C3103E081F8FD5101F5FE718D703B
:100FE000087094F8BC03012808D084F8BC2320685A
:100FF00003F046FA84F8BC53002070BD022070BD97
:1010000001F00F01C1EBC10100EB8100D0F8140227
:1010100070472DE9F04104460F0601F00F00C0EBC8
:10102000C00104EB81014FF001064FF0000503D52C
:1010300081F83D603C3103E081F8FD5101F5FE711E
:1010400008708A60CB704A7802B1C880022B00D148
:101050000D7194F8BC03012809D084F8BC632068A2
:1010600002F070FF284684F8BC53BDE8F0810220EE
:10107000FBE770B50C4601F00F05C5EBC50100EBB1
:101080008101C1F81032C1F808220023C1F81432DE
:1010900081F8FD3181F8FC51036901F5FE71012BE6
:1010A00000D10A612207027C006803D003F040FAF5
:1010B000002070BD03F02CF9FAE770B504460D4628
:1010C00001F00F006168884201D9012070BD290636
:1010D0004FF000064FF0010207D5C0EBC00104EB52
:1010E000810181F83D203C3107E0C5EBC50104EBEF
:1010F000810181F8FD6101F5FE718A70087094F834
:10110000BC03012807D084F8BC23206803F0E4F96D
:10111000280702D007E0022070BD217C04F571721F
:10112000206803F081F984F8BC63002070BD70B5BD
:101130000C4601F00F05C5EBC50100EB81010B6505
:101140008A6400234B65012381F83D3001F83C5F40
:101150000369012B00D10A612207027C006803D0D9
:1011600003F0E6F9002070BD03F0D2F8FAE70000C2
:101170002DE9FC5F05680446284603F002FB0028C1
:101180007ED1206803F029FB002879D0206803F085
:1011900024FB800704D52168486900F002004861FB
:1011A000206803F01AFBC10604F57170009034D575
:1011B0002068816921F0100181612F6A07F00F001A
:1011C000C0EBC00004EB8006C7F3434006F5FE7693
:1011D000022802D0062811D01AE047F6F070074224
:1011E00016D0C7F30A1217462846F16803F0F9FA39
:1011F000F0683844F060B069384408E008222846B6
:10120000009903F0EEFAB069C7F30A110844B0611F
:101210002068816941F010018161206803F0DDFAE6
:1012200000034FF0010A4FF0080B5BD50026206841
:1012300003F0B2FA0746DFF8689351E0F8074DD0A3
:10124000F1B2206803F0C1FA8046C00707D005EB71
:101250004611C1F808AB3146204601F0BBFC5FEAFD
:10126000087022D505EB4611C1F808BB2068016C57
:1012700000EB46100191D0F8082B494507D900E052
:101280008BE1110403D54FF40041C0F8081B204640
:1012900000F073FA0198484507D92069012804D164
:1012A00020680121009A03F0BFF85FEAC86004D506
:1012B00005EB46111020C1F8080B5FEA886004D5E1
:1012C00005EB46112020C1F8080B5FEA884005D5E0
:1012D00005EB46104FF40051C0F8081B7F08761C40
:1012E000002FABD1206803F078FA40034FF00009DB
:1012F0005CD5206803F049FA0746002654E0F80759
:1013000050D0F1B2206803F04EFA8046C00723D0D7
:1013100006F00F020AFA02F0D5F834288243C5F825
:10132000342805EB4610C0F808A9206901280FD120
:10133000C6EBC60004EB8000D0E9112111448164A2
:1013400036B9206D20B920680121009A03F06CF8AD
:10135000F1B22046FFF7E9FD5FEA087003D505EB1F
:101360004611C1F808B95FEAC86004D505EB46111B
:101370001020C1F808095FEA486004D505EB461162
:101380004020C1F808095FEA887004D505EB4611D2
:101390000220C1F808095FEA086003D531462046FB
:1013A00001F07EFC7F08761C002FA8D1206803F096
:1013B00014FA002811DAD5F8040820F00100C5F865
:1013C000040894F8F403012829D0204600F0B9F964
:1013D0002068416901F000414161206803F0FDF996
:1013E00000050BD5D5F80808C00702D0204600F04C
:1013F000EDF92068416901F400614161206803F062
:10140000ECF9C00468D5D5F8040820F00100C5F84F
:1014100004081021206803F095F9002127E084F8E2
:10142000F49300212046FFF755FDD1E705EB41106D
:101430004FF67F32C0F80829D0F8003923F40013A2
:10144000C0F80039D0F8003943F00063C0F8003923
:10145000C0F8082BD0F8002B22F40012C0F8002BA3
:10146000D0F8002B42F00062C0F8002B491C6068E5
:101470008842DBD8D5F81C0840F00110C5F81C08DC
:10148000206B60B1D5F8840840F00B00C5F88408E3
:10149000D5F8440840F00B00C5F844080CE0D5F836
:1014A000141842F22B000143C5F81418D5F810089F
:1014B00040F00B00C5F81008D5F8000820F4FE60D5
:1014C000C5F80008217C2068009A02F0ADFF206872
:1014D000416901F480514161206803F07EF9800484
:1014E00015D5206802F06EFD206803F03DF9E0603C
:1014F00000F01EFA0146227B206803F0A9F920467D
:1015000000F00CF92068416901F400514161206844
:1015100003F063F9000707D5204600F016F92068AC
:10152000416901F008014161206803F056F9C002E9
:1015300008D50021204600F035F82068416901F403
:1015400080114161206803F048F9800208D500212C
:10155000204600F02BF82068416901F40011416138
:10156000206803F03AF9400007D52046FFF7D9FC80
:101570002068416901F080414161206803F02DF944
:1015800040070AD520684568680702D52046FFF75E
:10159000DFFC2068416829434160BDE8FC9F0000F2
:1015A0000A30544FD0F8040402F006BAD0F804040C
:1015B00002F012BA2DE9F0418AB0040005D094F887
:1015C000BD032668002520B108E001200AB0BDE86F
:1015D000F08184F8BC53204600F05EF8032084F8C4
:1015E000BD03F06BC00500D42561206802F08AFEBF
:1015F00004F11001282288466846FEF7B6FE94E8FA
:101600000F0002F0EDFC0226C8BB0021206803F0A9
:10161000F6F8002001270EE0C0EBC00104EB8101C9
:1016200081F83D7001F83C0FC880CD708D60CD60B1
:10163000401CC0B24D6161688142EDD8002011E0CC
:10164000C0EBC00104EB810181F8FD5181F8FC0180
:1016500081F8FF51C1F80452C1F80852401CC0B2D1
:10166000C1F8105261688142EAD828224146684692
:10167000FEF77BFE94E80F0002F08AFD10B184F8BB
:10168000BD63A2E784F8385084F8BD73206802F087
:1016900071FD00209AE7000010B586B004461421C1
:1016A0006846FEF77BFE2068B0F1A04F2FD11948A5
:1016B0000021026842F001020260006800F00100AF
:1016C00005904FF4C05000900220CDE901010320A5
:1016D00003900A20049069460F48FFF7D3F80D489D
:1016E000001D016841F0800101600A481430016862
:1016F00041F4804101600068002200F480400590C0
:1017000011464320FFF7B4FB4320FFF7A3FB06B0CD
:1017100010BD0000303802400000024070B50446A1
:10172000C0680125022801D0FEF727FF2946D4F81A
:10173000040402F0BDF9D4F80404BDE8704002F0DE
:1017400070B9D0F8040402F099B9D0F8040402F09A
:101750009FB910B5044690F8BC0301280BD00120B6
:1017600084F8BC0384F83810206803F05FF8002088
:1017700084F8BC0310BD022010BDD0F8042400F58D
:101780007171104602F0A0B910B50446006894F8D3
:10179000BC13012906D0012184F8BC13A16A0129D8
:1017A00002D008E0022010BDA169012903D0816B9D
:1017B00041F480318163206802F0AEFF206802F0BE
:1017C000CBFC002084F8BC0310BD000010B504461B
:1017D000D0F8040402F0BAF92068D0F8001E41F0F5
:1017E0000101C0F8001E206A002804D002480168E8
:1017F00041F00601016010BD10ED00E02DE9F04759
:101800000E46050065D0DFF81481D8F80000F7B265
:1018100000F00700B04207D288F80070D8F8000046
:1018200000F00700B04254D128683D4C810712D522
:10183000400703D5206840F4E05020602878000776
:1018400003D5206840F4604020602068A96820F03B
:10185000F000084320602878C0072DD03049686820
:101860000839012812D0022813D0032811D00968A2
:10187000890700292DDA216821F003010143216045
:10188000FFF7EEF8814641F2883A0EE009688903D5
:10189000EFE709688901ECE7FFF7E2F8A0EB09013F
:1018A000514502D90320BDE8F0872068696800F03F
:1018B0000C00B0EB810FEFD1D8F80010404601F0DA
:1018C0000701B14207D90770006800F00700B04275
:1018D00001D00120E7E72878400705D52068E968AE
:1018E00020F4E050084320602878000706D52068DF
:1018F000296920F4604040EAC100206000F02EF821
:101900002168084AC1F30311515CC84006490860C8
:1019100006480068FFF766FA0020C4E7003C024072
:10192000083802408A770008340100202C0100208A
:101930000148006870470000340100200448054950
:1019400000680968044AC1F38221515CC8407047AD
:1019500034010020083802409A770008154810B575
:10196000006810F00C02144813D01449042A0FD058
:10197000082A0ED10F4C241F2268236802F03F0270
:101980005B0207D52068C0F38810A0FB010106E0C8
:10199000084610BD2168C1F38811A1FB0001002396
:1019A000FEF7B2FC2168C1F30141491C4900B0FBBC
:1019B000F1F010BD083802400024F40040787D01A9
:1019C0002DE9F84F04006ED02078DFF84C93C00763
:1019D000A9F104054AD009F104000168C1F38101AD
:1019E000012908D00068C0F3810002280AD1D9F883
:1019F0000000400206D52868800337D560680028BB
:101A0000E1D033E06068B0F5803F10D0B0F5A02F92
:101A1000286810D020F480302860286820F48020C6
:101A200028606068A8B1FFF71BF806460DE028683B
:101A300040F48030F4E740F480202860F7E700BFEE
:101A4000FFF70EF8801B642873D828688003F7D549
:101A50000CE0FFF705F8064605E000BFFFF700F8C9
:101A6000801B6428F0D828688003F7D42078DFF83A
:101A7000AC8280074FF0000A3ED5A748001D0168E0
:101A800011F00C0F08D00068C0F3810002280BD1C0
:101A9000D9F80000400207D42868800716D5E0680E
:101AA000012800D112E033E1E068B8B10120C8F8A4
:101AB0000000FEF7D5FF064605E000BFFEF7D0FFA9
:101AC000801B0228C0D828688007F7D528682169BC
:101AD00020F0F80040EAC10028600DE0C8F800A03E
:101AE000FEF7BEFF064604E0FEF7BAFF801B0228A1
:101AF0001FD828688007F7D42078000722D5864FA2
:101B000087486169703771B101210160FEF7A8FF54
:101B1000064604E0FEF7A4FF801B022809D83868B7
:101B20008007F7D50EE0C0F800A0FEF799FF064643
:101B300005E082E0FEF794FF801B02287DD838681C
:101B40008007F7D42078400768D5DFF8CCB10027AC
:101B50000BF13C0BDBF80000C0000BD4DBF80010ED
:101B600041F08051CBF80010DBF80000012700F0B5
:101B7000805000906B4E3068C00510D4306840F43F
:101B800080703060FEF76CFF009005E0FEF768FFA4
:101B90000099401A022850D83068C005F6D55E4E2C
:101BA000A0686C3601280FD00528306810D020F0CE
:101BB00001003060306820F004003060A068B8B1E7
:101BC000FEF74EFF00900FE0306840F00100F4E7B0
:101BD00040F004003060F7E7FEF742FF0099411A39
:101BE00041F28830814266D830688007F4D50EE033
:101BF000FEF736FF009007E0FEF732FF0099411A2A
:101C000041F28830814256D830688007F4D42FB131
:101C1000DBF8001021F08051CBF80010A069C8B3A8
:101C20003D49091D0968C1F3810102294AD00228F2
:101C3000504607D0C8F8600000E03CE0FEF710FF17
:101C400004463BE04746C8F86000FEF709FF064639
:101C500005E000BFFEF704FF801B02282BD8286890
:101C60008001F7D4D4E907010843A16A2E4A490844
:101C700002EB0141626A41EA8211084394F82C1098
:101C800040EA0161C9F8001001203866FEF7E8FE5D
:101C9000044606E03EE000BFFEF7E2FE001B02281D
:101CA00009D828688001F7D534E000BFFEF7D8FED8
:101CB000001B022802D90320BDE8F88F28688001A4
:101CC000F4D427E00128F7D0D9F80000E26900F445
:101CD000800191421CD1226A00F03F01914217D14C
:101CE00047F6C071626A0140B1EB821F10D1A26A4F
:101CF0004FF0FF3300F4403103EB5202B1EB024FDF
:101D000006D194F82C1000F07060B0EB016F01D098
:101D10000120D1E70020CFE704380240000047420D
:101D2000800E4742007000400000FFFF10B5401ECB
:101D3000B0F1807F01D3012010BD4FF0E02460613D
:101D40000F21601702F072FE0020A06107202061C1
:101D5000002010BD10B590F83C20012A22D00122AD
:101D600080F83C20CA688C6822F4407222434C6898
:101D700022F4806222430C6822F4006222430C6940
:101D800022F4805222434C6922F400522243C96952
:101D9000002322F480420A4301684A6480F83C3000
:101DA000002010BD022010BD70B590F83C20012A23
:101DB0002CD0012480F83C40022280F83D200368AA
:101DC0005A689D6822F070060A6832435A60104BC8
:101DD00002689A420ED0B2F1804F0BD00D4B9A425E
:101DE00008D00D4B9A4205D00C4B9A4202D00C4BB6
:101DF0009A4204D1496825F080031943916080F824
:101E00003D40002180F83C10084670BD022070BDA6
:101E1000000001400004004000080040000C0040A9
:101E20000040014010B5040003D094F83D0010B10B
:101E300007E0012010BD002084F83C00204600F09F
:101E40001FF8022084F83D00211D206801F02AF8C7
:101E5000012084F8460084F83E0084F83F0084F8AE
:101E6000400084F8410084F8420084F8430084F87C
:101E7000440084F8450084F83D00002010BD0000B7
:101E800038B5054600681B4A0021904223D11A4804
:101E9000026842F0010202600068194C00F0010083
:101EA0000090164820604FF0406060604020C4E918
:101EB000020100012061400060618000C4E9060168
:101EC000216220466162FEF729FC08B1FEF755FB4E
:101ED000EC62A56338BDB0F1804FFBD10648001F0E
:101EE000016841F001010160006800F0010000900C
:101EF00038BD00000000014044380240A0640240A8
:101F0000EC89002070B5044690F83C00012817D0F9
:101F1000012584F83C50022084F83D002068826846
:101F200022F0770222F47F4282600868502830D085
:101F30000DDC20284DD005DC98B310283BD148E0BB
:101F4000022070BD302844D0402834D139E06028C8
:101F500028D0702806D0B0F5805F2CD0B0F5005F97
:101F600029D10AE0CB68D1E90121206801F068F8A5
:101F70002068816841F0770109E0CB68D1E901214F
:101F8000206801F05DF82068816841F4804181603B
:101F900011E0CA684968206801F006F950212068FC
:101FA00007E016E0CA684968206801F00EF9602170
:101FB000206801F04FF884F83D50002084F83C0080
:101FC00070BDCA684968206801F0EEF840212068B9
:101FD000EFE7226801461046EBE7704770B586B020
:101FE000044614216846FEF7D9F9154E25680022EB
:101FF0001449022301241448B5420AD10D6845F062
:1020000001050D60096801F0010105914FF4A0611F
:102010000BE0B5F1804F10D10D6845F001050D6062
:10202000096801F00101059103210091CDE9013218
:10203000CDE903246946FEF725FC06B070BD00001B
:1020400000000140303802400000024010B5044654
:1020500090F83C0001280AD0012084F83C0042B1ED
:10206000042A0AD0082A0CD00C2A11D10DE0022033
:1020700010BD206800F0F6FF0AE0206801F01AF8B1
:1020800006E0206801F042F802E0206801F06AF8FA
:10209000002084F83C0010BD10B5040003D094F873
:1020A0003D0010B107E0012010BD002084F83C0085
:1020B000204600F01EF8022084F83D00211D206813
:1020C00000F0F0FE012084F8460084F83E0084F819
:1020D0003F0084F8400084F8410084F8420084F80E
:1020E000430084F8440084F8450084F83D00002053
:1020F00010BD704770B5044690F83C000D460128AD
:102100000AD0012084F83C0042B1042A18D0082AE1
:102110002AD00C2A4DD139E0022070BD206800F091
:10212000A1FF2068816941F008018161206881690F
:1021300021F004018161206881692A69114311E05D
:10214000206800F0B7FF2068816941F40061816177
:102150002068816921F480618161206881692A6930
:1021600041EA0221816124E0206800F0CFFF20686D
:10217000C16941F00801C1612068C16921F0040111
:10218000C1612068C1692A69114311E0206800F02B
:10219000E9FF2068C16941F40061C1612068C1693B
:1021A00021F48061C1612068C1692A6941EA022184
:1021B000C161002084F83C0070BD10B5040003D05C
:1021C00094F83D0010B107E0012010BD002084F814
:1021D0003C00204600F01EF8022084F83D00211D3E
:1021E000206800F05FFE012084F8460084F83E007D
:1021F00084F83F0084F8400084F8410084F84200ED
:1022000084F8430084F8440084F8450084F83D00D5
:10221000002010BD704770477047000010B504469D
:10222000022249B104290ED0082913D094F84100A4
:10223000012816D0012010BD94F83E000128F9D1E4
:1022400084F83E200FE094F83F000128F2D184F892
:102250003F2008E094F840000128EBD184F84020AA
:1022600001E084F841200122206800F067FE124955
:102270002068884203D1426C42F4004242642068E4
:1022800088420ED0B0F1804F0BD00C49884208D064
:102290000B49884205D00B49884202D00A4988423E
:1022A00004D1816801F00701062903D0016841F0DB
:1022B00001010160002010BD000001400004004049
:1022C00000080040000C0040004001402DE9F041B2
:1022D00017460D0004460CD0042D11D0082D16D041
:1022E00094F84100022819D094F84100012818D030
:1022F000A0E094F83E00022810D094F83E00F5E7E4
:1023000094F83F00022809D094F83F00EEE794F8D3
:102310004000022802D094F84000E7E70220BDE820
:10232000F0810FB9002B5BD14649474E474A022046
:1023300045B1042D16D0082D24D084F841000C2D71
:102340003AD16AE084F83E00606AC163606A394647
:102350000664606AC2642268606A3432FEF748FA32
:10236000F0BB1FE084F83F00A06AC163A06A394651
:102370000664A06AC2642268A06A3832FEF738FA9E
:1023800070BB14E084F84000E06AC163E06A39463B
:102390000664E06AC2642268E06A3C32FEF728FA0A
:1023A000F0B935E02068C16841F4007103E02068AD
:1023B000C16841F48061C16001222946206800F0B3
:1023C000BDFD23492068884203D1426C42F400429B
:1023D00042642068884210D0B0F1804F0DD000E0F8
:1023E00028E01C49884208D01B49884205D01B4977
:1023F000884202D01A49884204D1816801F007015D
:10240000062903D0016841F001010160002086E740
:102410002068C16841F40061CDE7206BC163206B87
:1024200039460664206BC2642268206B4032FEF796
:10243000DFF908B1012072E72068C16841F48051DA
:10244000B9E70000572F0008B52F0008ED2F00084E
:10245000000001400004004000080040000C004063
:102460000040014001684A69D24352050FD46FF41D
:1024700080624A61002140F8301F2022427381733C
:10248000026942F0040202610173012070470020DA
:10249000704700002DE9F843044600680D46DDE969
:1024A000089701689846164641F4807101604B46D2
:1024B00000224FF001112046009700F065F848B166
:1024C00020680068C00502D54FF400702064032026
:1024D000BDE8F883216805F0FE0008613B464A46E6
:1024E0001549204600F084F888B920684169806960
:1024F00000903A464946204600F0C5F848B1206CA5
:10250000042804D12068016841F4007101600120B1
:10251000DEE7F5B2B8F1010F09D02168300A086191
:102520003A464946204600F0AEF80028E7D1206838
:1025300005610020CCE700000200010070B51646DE
:102540000D4604460DE02046FFF78CFF08B1012040
:1025500070BD681C05D0FEF783FA801BA84207D81F
:1025600035B120684069C0434007ECD4002070BDFD
:10257000002044F8300F20216173A073216941F0DD
:10258000200121612073E2E72DE9F0471E469046C5
:102590000D460446C1F30747DDF8209008E0701CA3
:1025A00006D0FEF75DFAA0EB0900B0420FD876B175
:1025B0002068012F18D0806925EA00000004000C73
:1025C00014D000214145EAD00020BDE8F08700206A
:1025D00044F8300F20216173A073216941F020017C
:1025E000216120730120F0E74069E5E70121E9E777
:1025F0002DE9F0479A4691460E46044600254FF0D5
:102600002008C1F3074725E020684069C043400522
:1026100014D42068016841F40071016021686FF4EE
:1026200080604861256384F83D8084F83E50206CCA
:1026300040F00400206484F83C501FE0B9F1FF3FF3
:1026400008D0FEF70DFAA0EB0A0149450CD8B9F104
:10265000000F09D02068012F13D0806926EA0000FE
:102660000004000C0BD0CFE744F8305F84F80D80F5
:10267000A573206940F02000206125730120BDE88A
:10268000F0874069EAE770B516460D4604460DE04E
:102690002046FFF7E7FE08B1012070BD681C05D099
:1026A000FEF7DEF9801BA84207D835B120684069E3
:1026B000C0430006ECD4002070BD002044F8300F69
:1026C00020216173A073216941F0200121612073F1
:1026D000E2E70000F0B500230A24302537261F4624
:1026E00011E000BFB4EB107F02D905EB107C01E0D4
:1026F00006EB107C01F813C001EB430C00015B1CDE
:102700008CF80170DBB29342ECD3F0BD094808B5F8
:10271000016841F4800101600068002200F480003B
:10272000009011464520FEF7A3FBBDE80840452078
:10273000FEF790BB303802400D4808B5016841F003
:1027400080010160016801F080010091016841F0A1
:1027500001010160016801F001010091016841F08F
:1027600002010160006800F00200009008BD000056
:10277000303802400D4810B50B4901600C494160EA
:1027800000214FF480428160C0E903124161816100
:10279000C1610162FEF76AF9002803D0BDE810406C
:1027A000FDF7EBBE10BD0000005800400889002076
:1027B000801A060010B596B000240F94109411945E
:1027C000129413941C2168461494FDF7E7FD202110
:1027D00007A8FDF7E3FD2F482D49C0E90014592152
:1027E000C0E90241046144618461FFF71BFB08B149
:1027F000FDF7C3FE4FF480500F900FA92548FFF757
:1028000081FB08B1FDF7B9FE2248FFF745FC08B18E
:10281000FDF7B3FE1F48FFF7D0FC08B1FDF7ADFE92
:10282000139413A91B481494FFF7BEFA08B1FDF7DF
:10283000A4FE5020CDE9000402940394049405946E
:102840000022694613480694FFF700FC08B1FDF723
:1028500094FE60200090082269460E48FFF74AFC6B
:1028600008B1FDF78AFE0794089409944FF40050CC
:102870000A94CDE90B4007A906480E94FFF76AFABF
:1028800008B1FDF77AFE0348FFF7A8FB16B010BDAC
:10289000000001405C89002010B58EB00024079430
:1028A000089409940A940B941C2168460C94FDF733
:1028B00075FD22484FF0804101609021C0E901146C
:1028C00042F20F71C0E903148461FFF7ABFA08B15B
:1028D000FDF753FE4FF48050079007A91748FFF704
:1028E00011FB08B1FDF749FE1448FFF766FC08B17B
:1028F000FDF743FE0B940BA910480C94FFF754FA14
:1029000008B1FDF73AFE6020CDE9000402940022F0
:1029100069460A480494FFF7EDFB08B1FDF72DFE68
:10292000042269460548FFF7E5FB08B1FDF725FEDF
:102930000248FFF753FB0EB010BD0000A489002031
:1029400010B500220F49104800F035FF08B1FDF71F
:1029500014FE0E490C4801F021F908B1FDF70DFEF7
:102960000B49094800F041FD08B1FDF706FE064895
:1029700001F08EF9002803D0BDE81040FDF7FDBD41
:1029800010BD00005C010020B48C00209C020020DF
:10299000AC010020FEE7704770B5002404F1B000E0
:1029A000C0B200F0E7F8002000F0E4F8102000F0DA
:1029B000E1F80025002000F0EFF86D1CEDB2802D4D
:1029C000F8D3641CE4B2082CE8D370BD10B5C8205D
:1029D000FDF746FFBDE8104002F00EB810B5044602
:1029E000B031C8B200F0C6F8102040EA141000F070
:1029F000C1F804F00F00BDE8104000F0BBB80000C3
:102A00002DE9F04115460E460746FFF7E7FF0E4851
:102A1000002400EB8515285D00F0BEF8641CE4B2CC
:102A2000102CF8D3761CF1B23846FFF7D7FF0024FC
:102A3000281990F8200000F0AFF8641CE4B2102CC4
:102A4000F6D3BDE8F0810000AA7F00082DE9F0412F
:102A5000203A00240D468046D6B27F2803D90020B4
:102A60008D1C8046EDB2102B29460FD0FFF7B6FF24
:102A7000164906EB460001EB4005285D00F08CF896
:102A8000641CE4B2062CF8D3BDE8F081FFF7A6FF82
:102A90000F4F00BF04EB0610385C00F07DF8641C9B
:102AA000E4B2082CF6D36D1CE9B24046FFF796FF5E
:102AB0005FF0000404EB06103844007A00F06CF874
:102AC000641CE4B2082CF5D3DEE70000A27700080E
:102AD000CA7900082DE9F05F0026DDF828901D4630
:102AE00092468B46804634464FEA590723E0281B1E
:102AF000401EC1B20A2002F069F9BAFBF0F00A21C7
:102B0000B0FBF1F201FB120026B9691E8C4201DA1A
:102B100038B101263030C2B207FB0480C0B24B4648
:102B200004E007FB0480C0B24B4620225946FFF761
:102B30008DFF641CE4B2AC42D9D3BDE8F09F2DE90F
:102B4000F041984617460E46044600250DE04346E0
:102B500031462046FFF77AFF0834E4B2782C02D9D8
:102B60000024B61CF6B26D1CEDB27A5D002AEED1DF
:102B7000BDE8F08101B584B001214FF4807204A852
:102B80008DE807000B46002278210248FEF732F854
:102B900005B000BD0889002001B584B001214FF4C3
:102BA000807204A88DE807000B4640227821024875
:102BB000FEF720F805B000BD0889002010B502F02E
:102BC000DDFC0348FEF7D4FABDE8104002F0F4BC87
:102BD000A4A300202DE9F04103680D4604461E6CB5
:102BE00003EB4511D1F8080BD4F810E04FF400477F
:102BF0004FF0200C04F57172BEF1010F09D0DFF81F
:102C000098E0764539D1020432D500BFC1F8087B7F
:102C10003FE0224B5FEA007E04D59E4239D9000492
:102C2000F4D436E05FEA806E02D5C1F808CB30E01C
:102C300010F0280F2DD19E4201D90004E6D4C5EB37
:102C4000C50004EB8000D1F8101BD0F80432C1F3AA
:102C50001201591AC0F81412D0F808121944C0F819
:102C6000081295B9D4F8100278B9012120680AE059
:102C700080060AD5C1F808CB07E035B9D4F81002B0
:102C800018B90021184601F0CFFBE9B22046FEF743
:102C900055F90020BDE8F0810A31544F0A30544FF5
:102CA0002DE9F84F0E46C1EBC60100EB81048146C9
:102CB0000568D4E914103C34884202D90120BDE8EB
:102CC000F88F081AA168814200D20846C01C870804
:102CD00005EB46181BE000BFA0EB010AA0685045B9
:102CE00000D282460AF10300870899F8100000908C
:102CF0001FFA8AF3F2B22846E16801F01DFEE1688E
:102D000001EB0A00E060A16901EB0A00A061D8F8BC
:102D1000180980B2B84205D3D4E90501814201D235
:102D20000028D9D1D4E90501884208D806F00F015E
:102D300001208840D5F834188143C5F834180020A4
:102D4000BDE70000124D114E4FF0FF38A5F10C0405
:102D50004FF080474146306803F02AF9688994EDC6
:102D6000011A00EE100A2088C0F5967000EE900A55
:102D7000B8EE400AF8EEE00A01EE200ABCEEC00A06
:102D800010EE100A80B26881B863E3E738010020D2
:102D9000588A0020124D114E4FF0FF38A5F118044B
:102DA0004FF080474146306803F002F9688994ED9E
:102DB000011A00EE100A6088C0F1FA0000EE900AD5
:102DC000B8EE400AF8EEE00A01EE600ABCEEC00A76
:102DD00010EE100A80B268817863E3E738010020C2
:102DE000648A002070470178407841EA00207047EB
:102DF00010B502F0C3FBFDF7D3FF03F059FDBDE8AA
:102E0000104002F0D9BB000030B593B030216846C5
:102E1000FDF7C4FA14210CA8FDF7C0FA18480025E4
:102E2000016841F080510160006800F0805011900D
:102E30001448016841F4404101600068022400F434
:102E40004040119001200090000401908001CDE9E4
:102E50000640192008909020CDE9090403200B902A
:102E60006846FEF7ADFD0CA90F2081E83100E002B5
:102E7000CDE90F0502210CA8FEF7C0FC13B030BD50
:102E800040380240007000400548016841F470017C
:102E9000016003494FF0006080390860704700000E
:102EA00088ED00E0F0B502681D4B1E4C9F031E4DDF
:102EB0001E4E984207D0B84205D0A04203D0A84287
:102EC00001D0B04204D122F0700C4A6842EA0C02F0
:102ED000984210D0B8420ED0A0420CD0A8420AD0DE
:102EE000B04208D0124CA04205D0124CA04202D0F1
:102EF000114CA04203D122F44074CA6822434C69A9
:102F000022F08002224302608A68C2620A688262FA
:102F1000984201D10969016301214161F0BD0000BE
:102F2000000001400004004000080040000C004088
:102F300000400140004401400048014010B501F04C
:102F40001F030121046A99408C430462016A9A407C
:102F50001143016210BD10B5846B0121626A824287
:102F600005D12177C069F8B984F83E101CE0A26A47
:102F7000824206D102222277C069A8B984F83F10A4
:102F800012E0E26A824206D104222277C06958B96F
:102F900084F8401008E0226B824205D10822227793
:102FA000C06908B984F841102046FFF734F90020C1
:102FB000207710BD10B5846B616A814201D1012078
:102FC0000DE0A16A814201D1022008E0E16A81425C
:102FD00001D1042003E0216B814201D10820207738
:102FE0002046FFF719F90020207710BD10B5846B3B
:102FF0000121626A824203D1217784F83E1019E0F0
:10300000A26A824204D10220207784F83F1011E0A6
:10301000E26A824204D10420207784F8401009E05B
:10302000226B824204D10820207784F8411001E00D
:1030300084F83D102046FEF7D0FF0020207710BD19
:1030400010B5846842EA032224F47F440A432243F1
:10305000826010BD826822F070020A4342F00701CC
:103060008160704730B5026A22F001020262026A92
:103070004368846924F073050C682C4322F0020530
:103080008A682A430A4DA8420BD122F00805CA6873
:1030900023F440732A434D6922F004021D438B69D7
:1030A0002B434360846149684163026230BD000084
:1030B0000000014030B5026A22F010020262026A8A
:1030C000436884690D6824F4E64444EA05248D6865
:1030D00022F0200242EA05120B4DA8420ED1CD6823
:1030E00022F0800242EA05124D6923F4406343EA6C
:1030F00085038D6922F0400243EA850343608461C1
:1031000049688163026230BD0000014030B5026A47
:1031100022F480720262036A4268C46923F4007375
:1031200024F073050C682C438D6843EA05230C4D8D
:10313000A8420ED1CD6823F4006343EA05234D690C
:1031400022F4405242EA05128D6923F4806342EA78
:1031500005124260C4614968C163036230BD00006A
:103160000000014030B5026A22F480520262046A13
:103170004268C3690D6823F4E64343EA05238D687A
:1031800024F4005444EA0534064DA84204D14D69A4
:1031900022F4804242EA85124260C36149680164B8
:1031A000046230BD0000014010B5036A046A24F0D7
:1031B00001040462846924F0F00444EA021423F058
:1031C0000A020A438461026210BD10B5036A23F04B
:1031D000100303628369046A23F4704343EA0232F2
:1031E00024F0A00343EA01118261016210BD2DE9C0
:1031F000F0410C46D0F8C422D0F8BC12F9B104EB6F
:10320000840300EB83050026AB694BB1C4EBC40714
:1032100002EB8702526CB3FBF2F702FB173282B16A
:10322000C1F81462D0F8C00203692BB1D1F80802CA
:10323000224601F5047198470020BDE8F081032083
:10324000FBE700231A462146AE6100F088FCF3E755
:1032500070B5D0F8BC4205466CB100F069FBC4F80B
:103260000C02D5F8C012D4F80402CA6804F5037140
:103270009047002070BD032070BD70B504468121C9
:1032800000F0B5FA002525870121204600F0AFFAAD
:10329000A4F878518221204600F0A9FAA4F84C50F5
:1032A000A4F84E50D4F8BC0248B1D4F8C00204F5DA
:1032B0002F7440688047206800F03FFE25600020A2
:1032C00070BD10B5D0F8BC4284B1D0F8C01259B16D
:1032D00094F80002FF2807D08B6894F80122214659
:1032E0009847FF2084F80002002010BD032010BD85
:1032F0000A21018000487047C40100204321018059
:1033000000487047140200204321018000487047A4
:10331000D00100204321018000487047580200205E
:103320002DE9F04704464FF4077000F007FE050052
:103330004FF0000735D0C4F8BC52207C4FF0100885
:103340004FF40079012680B34023022281212046D8
:1033500000F052FB2687402302220121204600F084
:103360004BFBA4F87861A4F84E8008230322822145
:10337000204600F041FBA4F84C60D4F8C00200687D
:103380008047C5F81472C5F81872207CD5F804225D
:10339000A8B140230121204600F03AFB0020BDE8FF
:1033A000F0870220C4F8BC72F9E7FFE74B4602221F
:1033B0008121204600F020FB26874B46CCE74B4678
:1033C000E8E710B5D0F8BC1251B1027C002AD1F860
:1033D000042207D04023012100F01AFB002010BD79
:1033E000032010BD4FF40073F5E719B1C0F8C01207
:1033F0000020704703207047D0F8BC0218B1C0F815
:1034000004120020704703207047D0F8BC0228B196
:10341000C0F81022C0F8081200207047032070473F
:103420002DE9FC410646D0F8BC7200200C468DF810
:103430000000ADF80400054637B1207810F06001B7
:1034400028D0202944D102E00320BDE8FC81E28895
:10345000C2B1000660780AD5D6F8C0128B6839462A
:103460009847E288072A00D90722394628E087F8DA
:103470000002A07987F80102E2883946304600F060
:1034800051F82AE0D6F8C012607800228B682146F5
:10349000984722E0607830B101281ED00A2809D070
:1034A0000B2815D110E096F89C02032810D10222B7
:1034B00001A905E096F89C02032809D1012269467A
:1034C000304600F049F808E096F89C02032804D042
:1034D0002146304600F01BF803252846B5E710B515
:1034E000D0F8B8220AB152689047002010BD1346A8
:1034F00010B50A46002100F08BFA002010BD1346DB
:1035000010B50A46002100F02AFB002010BD10B5BE
:103510000446802100F008FB2046BDE81040002151
:1035200000F002BB10B50323C0F89432C0F8582154
:103530001346C0F85C210A46002100F069FA002019
:1035400010BD10B50521C0F8941200231A46194683
:1035500000F05EFA002010BD10B50223C0F89432CE
:1035600082611346C2610A46002100F0F8FA002089
:1035700010BD10B50421C0F8941200231A46194654
:1035800000F0EDFA002010BD10B50A46024903A074
:1035900000F0E1F8004810BD848F00204344432030
:1035A000436F6E666967000012200880004870470C
:1035B0007C01002010B50A46024903A000F0CBF8B8
:1035C000004810BD848F002043444320496E746539
:1035D000726661636500000004200880004870473F
:1035E0007801002010B50A46024903A000F0B3F8A4
:1035F000004810BD848F002053544D6963726F657D
:103600006C656374726F6E696373000010B50A466F
:10361000024903A000F09FF8004810BD848F0020ED
:1036200053544D3332205669727475616C20436F68
:103630006D506F727400000010B51A2008800A489F
:103640000168001D0468001D0068081809D00822E0
:103650000649FFF73FF80549042210312046FFF7DD
:1036600039F80248801E10BD107AFF1F9201002019
:10367000F8B504460020ADF8000048880D46010A60
:1036800008295FD2DFE801F05E0409175E5E3C4561
:10369000D4F8B412207C0A6819E0207C02260028A5
:1036A000D4F8B80205D0C16A68468847014646701A
:1036B00039E0816AF8E7C0B2062843D2DFE800F0BB
:1036C000030A1014181CD4F8B402426805E06946D5
:1036D00090471CE0D4F8B402826892B3207CF6E7ED
:1036E000D4F8B402C268F8E7D4F8B4020269F4E787
:1036F000D4F8B4024269F0E7D4F8B4028269ECE786
:10370000207CF0B9D4F8B802416B6846884701467E
:1037100009E0207CA8B9D4F8B802016B6846884754
:10372000014607204870EA888AB1BDF8000040B120
:10373000824200D90246ADF800202046FFF70CFF78
:10374000F8BDFFE729462046FFF7E1FEF8E72046EF
:10375000FFF70FFFF4E770B5002300281ED0002507
:10376000044602E06D1CEDB2641C2678002EF9D1EF
:10377000022404EB450414801278CA545B1C032213
:10378000CA5400245B1C06E0CA545B1CDAB28C5499
:10379000521CD3B2401C0278002AF5D170BD010042
:1037A0004FF0000004D0012901D0022901D00320EC
:1037B00070470120704778B10023C0F8B832C0F8D4
:1037C000C032C0F8CC3209B1C0F8B412012180F87F
:1037D0009C12027000F0B0B80320704710B5D0F80A
:1037E000C402FDF7DFFBBDE81040FFF7D8BF10B5FE
:1037F000D0F8C402FDF7B0FBBDE81040FFF7CFBF23
:1038000070B51646044621B194F89C02032841D0B5
:1038100048E0D4F8941204F114000025022932D1B2
:10382000D0E902318B4206D95A1A826031462046CD
:10383000FFF765FE0FE0994214D14068884211D32A
:10384000D4F8981288420DD2002211462046FFF784
:1038500056FEC4F8985200231A461946204600F036
:10386000D7F810E094F89C02032805D1D4F8B802E8
:10387000C16809B1204688478021204600F054F9EC
:103880002046FFF75EFE94F8A00201280AD184F8D2
:10389000A05207E0D4F8B80242691AB12046904716
:1038A000002800D1002070BD10B51346044621B198
:1038B00094F89C02032823D02AE0D4F8941204F54B
:1038C000AA70032924D1D0E9021291420AD98A1A96
:1038D0008260C068824200D3024619462046FFF744
:1038E00006FE15E094F89C02032805D1D4F8B8022E
:1038F000016909B1204688472046FFF73AFE07E0F4
:10390000D4F8B80282691AB120469047002800D145
:10391000002010BD0020704710B5012180F89C12D6
:10392000D0F8B82212B1526801799047002010BD3A
:10393000D0F8C402FDF764BB10B5017839BB154956
:103940000222C1F80404C0F8C4124FF0A04008607D
:10395000042048600020C1E90320C1E90620086274
:103960004862C86208630846FDF724FE08B1FCF708
:1039700004FE80210748FDF7AEFA402200210548E9
:10398000FDF7ADFA802201210248FDF7A8FA0020D8
:1039900010BD0000A4A300200A0601F07F01D0F8AA
:1039A000C402C1EBC10100EB810002D590F83E00DA
:1039B000704790F8FE01704710B5D0F8B82222B1D8
:1039C00090F89C32032B02D004E0032010BD126A51
:1039D00002B19047002010BD10B5D0F8B82222B136
:1039E00090F89C32032B02D004E0032010BD526AF1
:1039F00002B19047002010BD10B51C461346D0F808
:103A0000C4022246FDF705FBBDE81040FFF7C7BE24
:103A100010B5D0F8C402FDF72CFBBDE81040FFF74D
:103A2000BEBE70B50125044680F89C520020C4F843
:103A300094026060C4F8A402D4F8B802E0B1D4F8EB
:103A4000BC1221B1426812B10021204690470022E9
:103A5000402311462046FFF7CFFF4026A4F86451CB
:103A60003346002280212046C4F86061FFF7C4FF7E
:103A7000A5840020266270BD032070BD90F89C12C2
:103A8000042903D190F89D1280F89C120020704701
:103A900010B5D0F8B81221B190F89C22032A02D0B8
:103AA00004E0032010BDC96901B18847002010BDA2
:103AB00001740020704710B5D0F8C402FDF749FE2C
:103AC000BDE81040FFF76BBE70B5044600F2AA20B7
:103AD000054600F04DF80120C4F89402B4F8B00295
:103AE000C4F8980294F8AA0210F01F010AD0012924
:103AF0000ED0022912D000F080012046BDE87040AF
:103B000000F012B829462046BDE8704000F0C2B867
:103B100029462046BDE8704000F0E6B92946204617
:103B2000BDE8704000F040B910B5D0F8C402FDF710
:103B3000C4FABDE81040FFF732BE10B5D0F8C40299
:103B4000FDF722FEBDE81040FFF729BE90F89C1259
:103B500080F89D12042180F89C120020704710B557
:103B6000D0F8C402FDF7E3FABDE81040FFF717BE36
:103B700070B5054611F8010B2870087868704C1C68
:103B80002046FFF730F96880A41C2046FFF72BF988
:103B9000A880A01CFFF727F9E88070BD38B504465F
:103BA0000020ADF8000049B1C4F8B812C96A19B1D3
:103BB00068468847C4F8CC02002038BD032038BDD1
:103BC00002460320D2F8B832002B02D01B68104600
:103BD000184770472DE9F0410F462C4E8978002593
:103BE00004463170012906D939462046FFF78FFC7B
:103BF0000320BDE8F08194F89C0202280CD0032831
:103C00001DD039462046FFF782FC31782046FFF769
:103C100066FC03252846ECE799B320466160FFF770
:103C2000CFFF050004D039462046FFF770FCF1E7CE
:103C30002046FFF79EFC032084F89C02EAE74FF041
:103C40000208C1B1606888421BD0C1B22046FFF7AC
:103C500046FC317820466160FFF7B2FF050010D0C6
:103C600039462046FFF753FC21792046FFF737FC01
:103C700084F89C82CEE784F89C8220466160FFF73E
:103C80002EFC2046FFF775FCC4E70000C0010020B1
:103C9000FFF753BF2DE9F0410A78002512F06002CA
:103CA00008D0202A01D0402A71D1D0F8B8229268D9
:103CB000904731E04B78002201260A2B67D2DFE8DB
:103CC00003F0415E6658660805662D29FFF7D0FCB3
:103CD0005FE004468888D8B9C888C8B94888802871
:103CE00016D200F07F0794F89C02032810D084F8C5
:103CF0009E7239462046FFF7DEFE2046FFF739FC6C
:103D00001FB1022084F89C0243E084F89C6240E0EA
:103D100020463CE0FFF75EFF05463AE0CB88012BEA
:103D200035D190F89C32012B04D0022B02D0032B0A
:103D30002DD104E08260012200F1080116E0012289
:103D4000011D13E090F89C22012A03D0022A01D021
:103D5000032A1CD1CA88022A19D1C660D0F8A4123D
:103D600009B10321C160022200F10C01FFF7F4FB4D
:103D70000FE0498801290CD1C0F8A46211E090F845
:103D80009C32012B08D0022B06D0032B04D0FFF766
:103D9000BEFB2846BDE8F08149880129F9D1C0F869
:103DA000A422FFF7E6FBF4E72DE9F0410D460446B7
:103DB00028780026097910F060000BD0202801D067
:103DC00040286DD1D4F8B802294682682046904731
:103DD000064686E06878A8B3012822D003287CD163
:103DE00094F89C02022802D0032876D10BE0002927
:103DF00073D0802971D02046FFF796FE802120469F
:103E0000FFF792FE6DE0688838B931B1802904D09F
:103E1000E88810B92046FFF787FE2046FFF7A9FB88
:103E20005FE094F89C020228E1D0032855D168880D
:103E3000A8BB480602D02046FFF7D0FC2046FFF77B
:103E400098FBBFE7FFE794F89C020027022802D006
:103E5000032842D111E009B180293ED1080601F0C2
:103E60007F0000EB800004EB800101D5143101E0FC
:103E700001F5AA7102220F602BE0080601F00F0085
:103E800000EB800004EB80000BD5808C40B101F08A
:103E90007F0000EB800004EB800514350CE020E08F
:103EA0001BE0B0F86401C0B101F07F0000EB8000BE
:103EB00004EB800505F5AA7541B1802906D020469E
:103EC000FFF76AFD10B10120286000E02F60022298
:103ED00029462046FFF740FB03E029462046FFF72E
:103EE00016FB3046BDE8F08170B506460878002420
:103EF0000D4610F0600003D0202801D0402817D1D3
:103F000096F89C02012803D0022801D003280FD183
:103F1000287901280CD8D6F8B80282683046904734
:103F20000446E888204306D13046FFF722FB02E032
:103F30003046FFF7ECFA204670BD704700487047E6
:103F400084A1002070B50A78012302F00F054E7895
:103F5000AB401B4CD0F81C58012E17D045EA034348
:103F6000C0F81C3800EB4210D0F8002B12040BD420
:103F7000D0F8002B0B89C978C3F30A031A4344EA2B
:103F800081410A43C0F8002B002070BD9BB21D4345
:103F9000C0F81C5800EB4210D0F800391B04F3D4D1
:103FA000D0F800390D89C978C5F30A0589042B4377
:103FB00041EA82510B432343C0F80039E4E7000093
:103FC00000800010D0F800196FF30A01C0F8001942
:103FD000D0F8041841F48071C0F80418002070472C
:103FE00070B5044606990A9E049D0D98012916D0C5
:103FF000E06840F04000E060204600F02BF8A16B44
:104000001EB321F48031A163012D07D1A16841F0D5
:104010000601A160A16841F02001A16070BDA16B03
:1040200021F48031A163E168094A1140E160E1684F
:1040300021F44011E160012803D1E06840F48010D0
:10404000E060204600F006F8DEE741F48031DAE770
:10405000BFFFBDFF01220C4902E0521C8A420BD86F
:104060000369002BF9DA026942F0010202610122C0
:1040700004E0521C8A4201D9032070470369DB0720
:10408000F7D1002070470000400D030030B54C7898
:104090000A78012300EB4212012C2CD0D2F8004BFD
:1040A000002C0BDAD2F8004B44F00064C2F8004B4D
:1040B000D2F8004B44F08044C2F8004BD0F83C5892
:1040C0000C7804F00F0403FA04F425EA0444C0F861
:1040D0003C48D0F81C48097801F00F018B4024EAD5
:1040E0000341C0F81C18D2F8000B19490840C2F867
:1040F000000B002030BDD2F80049002C0BDAD2F8BA
:10410000004944F00064C2F80049D2F8004944F084
:104110008044C2F80049D0F83C480D7805F00F05FE
:1041200003FA05F5ADB2AC43C0F83C48D0F81C48E2
:10413000097801F00F018B4099B28C43C0F81C48FC
:10414000D2F8000903490840C2F80009D1E700008D
:104150000078F3EF007833ECD0F8001E21F0030173
:10416000C0F8001ED0F8041821F00201C0F80418AD
:1041700000207047D0F8001E21F00301C0F8001E97
:10418000D0F8041841F00201C0F80418002070476C
:104190002DE9F04F00250E460446DDF82CC0DDF871
:1041A00024B0109F2846294604EB8002C2F804116F
:1041B000401C0F28F8D32046C7B1806B20F40012B2
:1041C000A263A06B40F40022A26308468846C4F8AC
:1041D000000ED4F800182046C4F80018BCF1010FF6
:1041E00016D0D0F8001841F0030116E0D0F804080A
:1041F00040F00202C4F80428A06B40F40012A2634D
:10420000A06B20F40022A263A06B20F48022DBE7E5
:10421000D0F800180BB141F00101C0F800181021CE
:1042200000F090FA00B10125204600F07BFA00B1C1
:1042300001254046C4F81088C4F81488C4F81C88C6
:1042400000214FF000694FF0904A4FF67F3314E0A1
:1042500004EB4112D2F800C9BCF1000F06DA11B12B
:10426000C2F800A904E0C4F8009901E0C2F800090E
:10427000C2F81009C2F80839491C8E42E8D800215A
:1042800015E000BF04EB4112D2F800CBBCF1000FE7
:1042900006DA11B1C2F800AB04E0C4F8009B01E0FB
:1042A000C2F8000BC2F8100BC2F8083B491C8E4242
:1042B000E8D8D4F8101821F48072C4F81028A0614E
:1042C0006FF080406061BBF1000F03D1A06940F046
:1042D0001000A061A06909490843A0610C9818B1B9
:1042E000A06940F00800A061012F03D1A069044932
:1042F0000843A0612846BDE8F08F000000383C80EC
:1043000004000040816821F00101816000207047B5
:1043100070B50D784E78434CEBB200EB4313012E91
:104320001FD0D3F8100B6FF31200C3F8100BD3F8A3
:10433000100B2040C3F8100B486908B18868486129
:10434000D3F8100B40F40020C3F8100BD3F8100B77
:104350008C68C4F312042043C3F8100B012A55D013
:1043600058E04E69002ED3F8106932D06FF3120670
:10437000C3F81069D3F810692640C3F810694E6974
:104380008C68A64200D94C61D3F8104944F400244B
:10439000C3F81049D3F810494E69C6F312063443E6
:1043A000C3F81049012A22D000EB4512D2F8003997
:1043B00043F00443C2F800394A6932B3D0F83428D4
:1043C000097801F00F03012199400A43C0F834280D
:1043D00026E02640C3F81069D3F8104944F40024BD
:1043E000C3F81049D3F810496FF31204D8E70969EC
:1043F00019B100EB4512C2F8141900EB4510D0F8C2
:10440000001941F00441C0F8001909E0C86808B17A
:10441000C3F8140BD3F8000B40F00440C3F8000BB2
:10442000002070BDFFFF07E010B5036C134CA342E2
:1044300003D9D0F8003B002B1EDB0023C0F8103B53
:10444000D0F8103B43F40023C0F8103BD0F8103BE9
:1044500043F01803C0F8103BD0F8103B43F0C043C2
:10446000C0F8103B012907D1C0F8142BD0F8001B6D
:1044700041F08021C0F8001B002010BD0A30544FCD
:104480004A780B78012A00EB43100BD0D0F8002BB0
:1044900022F40012C0F8002BC978032914D0022995
:1044A00012D017E0D0F8002922F40012C0F8002939
:1044B000C978032901D002290CD1D0F8001941F0A4
:1044C0008051C0F8001905E0D0F8001B41F0805180
:1044D000C0F8001B002070470A784B78D1B200EB7F
:1044E0004110012B12D0D0F8001B002906DB2AB1A5
:1044F000D0F8001B21F08041C0F8001BD0F8001B51
:1045000041F40011C0F8001B00207047D0F80019DA
:10451000002906DB2AB1D0F8001921F08041C0F84B
:104520000019D0F8001941F40011C0F80019EBE7A8
:10453000F8B50C784F78774DE3B26FF0604600EB3A
:104540004313012F26D0D3F8104B6FF31204C3F896
:10455000104BD3F8104B2C40C3F8104B4C69002C77
:1045600074D08D682C44641EB4FBF5F4D3F8105B52
:10457000A4B206EAC4463543C3F8105BD3F8105B17
:104580008E686643C6F312042543C3F8105B012A04
:1045900071D0A6E04F691FB3D3F810796FF31207FB
:1045A000C3F81079D3F810792F40C3F810794F6908
:1045B0008D682F447F1EB7FBF5F506EAC545D3F895
:1045C00010693543C3F81059D3F810594E69C6F332
:1045D00012063543C3F81059CD78012D10D01BE0D9
:1045E000D3F810692E40C3F81069D3F8105945F478
:1045F0000025C3F81059D3F810596FF3120509E0DC
:10460000D3F8105925F0C045C3F81059D3F8105904
:1046100045F00055C3F81059012A18D000EB441397
:10462000D3F8004944F00444C3F80049CC78012C85
:104630002FD04A6962B3D0F83428097801F00F030B
:10464000012199400A43C0F8342860E036E00A6945
:104650001AB100EB4413C3F81429C97801290FD10A
:10466000D0F80818C90500EB4411D1F8002903D48B
:1046700042F0005202E030E042F08052C1F80029DE
:1046800000EB4410D0F8001941F00441C0F80019C3
:104690003DE0D0F80848E405D3F8004902D444F0DE
:1046A000005401E044F08054C3F8004900928A8A23
:1046B00093B20A78C96800F03FF928E0D3F8104BAC
:1046C0008D68C5F312052C43C3F8104BD3F8104B7B
:1046D00044F40024C3F8104B59E7CA680AB1C3F880
:1046E000142BC97801290CD1D0F80808C005D3F8DB
:1046F000000B02D440F0005001E040F08050C3F8BD
:10470000000BD3F8000B40F00440C3F8000B00206E
:10471000F8BD0000FFFF07E0816841F00101816002
:1047200000207047002110220261054A491C914275
:1047300001D9032070470369DB06F7D400207047D6
:10474000400D03000022202343EA81110161054945
:10475000521C8A4201D90320704703699B06F7D493
:1047600000207047400D0300D0F8080810F0060044
:1047700004D0022803D0062801D00F207047022061
:104780007047406900F001007047D0F81818D0F861
:104790001C08084080B27047D0F81818D0F81C08E0
:1047A0000840000C704710B5D0F81038D0F8342805
:1047B00001F00F0400EB4110E24002F00102D0F8DA
:1047C000080943EAC212104010BD00EB4111D1F8B4
:1047D000081BD0F8140808407047416980690840F8
:1047E0007047D21C10B59308002200F5805002E0FB
:1047F0000468521C10C19A42FAD3084610BD10B585
:10480000C26822F0C042C260012902D029B1012051
:1048100010BDC16841F0005102E0C16841F0804123
:10482000C1603220FCF71CF8002010BDD0F8002831
:1048300022F4FE62C0F80028D0F800284FF4FE638E
:1048400003EA01110A43C0F8002800207047000065
:10485000022A3ED1264A274B0A449A4201D20F210E
:1048600038E0254A254B0A449A4201D20E2131E014
:10487000234A244B0A449A4201D20D212AE0224ABB
:10488000224B0A449A4201D20C2123E0204A214BB8
:104890000A449A4201D20B211CE01F4A1F4B0A44D2
:1048A0009A4201D20A2115E01D4A1E4B0A449A423F
:1048B0000FD31D4A1D4B0A449A4201D2082109E038
:1048C0001B4A11441B4A914201D2072102E00621F2
:1048D00000E00921C26822F47052C260C2684FF43D
:1048E000705303EA81210A43C26000207047000030
:1048F000405327FF00350C00401E1BFF40420F00B5
:1049000000DC0BFF804F1200808CF9FE20D61300D4
:1049100060B6E5FE60E3160000D3CEFE40771B00D4
:10492000C05BB3FEC091210000CA91FE2075380023
:10493000E05459FEE09C410010B5029C64B9DB1CB8
:104940009C0800EB0230002300F5805002E004C90F
:1049500002605B1CA342FAD3002010BDFEE70000FA
:104960000024234D234E671E4FF4FA7839466868B9
:1049700001F01EFBFF231F481A461946243000F0A1
:104980007FF9404601F0E0FC00231A481A46194618
:10499000243000F075F9322001F0D6FCFF231548D1
:1049A0001A461946243000F06BF9642001F0CCFC63
:1049B000002310481A461946243000F061F964209B
:1049C00001F0C2FCFF230B481A461946243000F0C0
:1049D00057F9642001F0B8FC002306481A4619462E
:1049E000243000F04DF9642001F0AEFC3472BDE7D4
:1049F000380100204C8A0020FEB50024094F4FF4F6
:104A0000807501263819CDE900060123002278219E
:104A100002950548FCF7EEF8641CE4B21B2CF1D3B8
:104A2000FEBD000040010020088900200907090E92
:104A3000002804DB00F1E02080F80014704700F04B
:104A40000F0000F1E02080F8141D7047002807D007
:104A50000E4910F0FF0F04D051FA80F00078401C8E
:104A6000704710F47F4F04D0C0F30720085C093072
:104A7000704710F47F0F04D0C0F30740085C11307A
:104A8000704701EB10600078193070472B740008F4
:104A900002E008C8121F08C1002AFAD17047704707
:104AA000002001E001C1121F002AFBD17047000065
:104AB00010B5044605484068FFF7C8FF0449401E8A
:104AC00051F830102060A1F1140010BDF00000205A
:104AD0000808002003480168814201D00120704786
:104AE000002070470001002010B5040004D14F22BF
:104AF000104911A000F07EFAA06A0178232906D19E
:104B0000E169814203D9E26A02448A4208D221461D
:104B10000EA000F095FDFBF75DFB0028FDD110BD58
:104B200020308142FBD82146BDE810400EA000F0A5
:104B300087BD0000097600087468726561642021F1
:104B40003D2052545F4E554C4C0000007468726515
:104B500061643A257320737461636B206F766572AC
:104B6000666C6F770A0000007761726E696E673A53
:104B700020257320737461636B20697320636C6FED
:104B8000736520746F20656E64206F662073746196
:104B9000636B20616464726573732E0A0000000009
:104BA0002DE9FC411F460446DDE90831DDE90A65CF
:104BB000143040600060C4E90827C4E90A310A469D
:104BC0002321184600F096FED4E90A014218D4E9E0
:104BD0000801154B121F00F0B3FCE061202E04D336
:104BE0009522124912A000F005FA84F8366084F884
:104BF000356000206564A063A564206384F83400F8
:104C0000A067E067009023460190124A194604F11C
:104C10004C0001F087FF1048816809B120468847A1
:104C20000020BDE8FC8100004D63000857760008B5
:104C30007072696F72697479203C2052545F5448D5
:104C4000524541445F5052494F524954595F4D417A
:104C500058000000F16700080801002010B5029C10
:104C600024F001044472C0E907120021C0E90931AF
:104C700014304060006010BD143000F033BD0000FF
:104C80002DE9F0414FF0000C20F802CB674680265A
:104C9000002526FA05FE34461EEA010F02D04FF029
:104CA0003C0E01E04FF01D0E6D1C20F802EB082DAC
:104CB000EFD3002524FA05FE1EEA020F02D04FF0C2
:104CC0003C0E01E04FF01D0E6D1C20F802EB082D8C
:104CD000F0D3002524FA05FE1EEA030F02D04FF0A0
:104CE0003C0E01E04FF01D0E6D1C20F802EB082D6C
:104CF000F0D37F1C0C2FCBD3A0F800C0BDE8F0414F
:104D00004FF49173024A08210248FDF7DFBA000010
:104D1000708A00205C890020FCF74AF8FEF774F8DE
:104D2000FDF70AFDFDF7F2FCFDF724FDFDF7B4FDEC
:104D3000FDF706FEFDF73EFD0649A1F5004001F036
:104D400029FA01F0D7FA01F0A9FA01F09FFB02F06D
:104D50007DF9FEE708890020002208B511461046BB
:104D6000FDF74EFE012200211020FDF749FE102321
:104D700013A202210020FDF7E2FE102311A204215C
:104D80000020FDF7DCFE104D142640F2EC4805F142
:104D90000C0440F2EE2700966A8905230421322094
:104DA000FDF798FE00966289052304213220FDF765
:104DB00091FE69894145EED96F816781EBE700007B
:104DC0007800000079000000588A00200246012087
:104DD00000E05043491EC9B2FBD2704770B5204D68
:104DE0000446A868844204D2A1221E491EA000F0F5
:104DF00001F9E868844204D3A2221A4922A000F0F3
:104E0000F9F8608820B1A32216492AA000F0F2F830
:104E10006168A86801448C420FD04A886AB9EA6880
:104E200091420AD02A698A4200D12C614A686260A4
:104E30004B6800F10801221A5A50A1680144A142AE
:104E40000CD04A88002A09D12A69A24200D12961DE
:104E500062684A60091A62680830115070BD00002B
:104E60002C000020557500082872745F75696E74F7
:104E7000385F74202A296D656D203E3D206865618C
:104E8000705F7074720000002872745F75696E74D0
:104E9000385F74202A296D656D203C202872745F6C
:104EA00075696E74385F74202A29686561705F6562
:104EB0006E6400006D656D2D3E75736564203D3D2B
:104EC000203000002DE9F04F85B09946DDE90EA5B0
:104ED000109CAB46630602D5DFF814C103E0DFF88F
:104EE00010C1ACF1110CE30601D524F00104E30775
:104EF00001D0302300E0202300260493A3070BD524
:104F0000002A02DA2D26524206E0630701D52B263D
:104F100002E0230700D520260023EE4622B93022E6
:104F20008DF8002001230CE0B9F10A0F14D002F033
:104F30000F0812091CF808800EF803805B1C002A79
:104F4000F2D1AB4200DD1D46AAEB050214F0110FB1
:104F50004FF0200708D015E00A27B2FBF7F807FB4F
:104F60001828B2FBF7F2E5E73EB1002A05DD521E34
:104F700003E0884200D20770401CB2F1000CA2F19D
:104F80000102F6DC26B1884200D20670401C521E97
:104F9000E40605D508E0884201D2049C0470401C58
:104FA000141EA2F10102F6DC30242E466D1E9E4234
:104FB0000ADD884200D20470401CF6E7884201D224
:104FC000E55C0570401C00E074461D1EA3F1010362
:104FD00007DDBBF1000FF1D103E0884200D207707A
:104FE000401C131EA2F10102F7DC05B0BDE8F08FF2
:104FF0003C75000838B500238DF80030094B9C68DB
:1050000024B101B0A446BDE83040604713460A46CB
:10501000014605A000F014FB9DF800000028FBD01D
:1050200038BD0000200000202825732920617373FB
:10503000657274696F6E206661696C656420617465
:105040002066756E6374696F6E3A25732C206C69E7
:105050006E65206E756D6265723A2564200A0000E7
:105060002DE9F0411D4616460F46040005D14FF4C8
:10507000C372134913A0FFF7BDFF204600F054FD93
:10508000092805D040F287120D4912A0FFF7B2FFA0
:10509000A07E58B1D4F834C0BCF1000F09D02B4623
:1050A000324639462046BDE8F04160474FF0FF30B8
:1050B00001E06FF0050001F039F80020BDE8F08153
:1050C000C371000864657620213D2052545F4E551F
:1050D0004C4C000072745F6F626A6563745F676551
:1050E000745F7479706528266465762D3E706172F0
:1050F000656E7429203D3D2052545F4F626A65639E
:10510000745F436C6173735F446576696365000027
:1051100010B5FBF75FF8044A5188491C5180BDE87F
:105120001040FBF75BB80000F000002010B5FBF763
:1051300051F80B4C6188491E09B2618000290ADCD4
:1051400000216180FBF74AF8A068002807D0BDE87D
:10515000104000F079BDBDE81040FBF73FB810BD2E
:10516000F000002070B504006ED0FBF733F8054660
:1051700000F016FA48B1354935A000F061FA40F266
:105180002F2232493CA0FFF735FF2846FBF726F8CF
:10519000600705D040F231222C4938A0FFF72AFFE2
:1051A000424DA868844202D3E868844205D340F2A5
:1051B000322226493E48FFF71DFF696809B12046A3
:1051C0008847A86884423FD3E86884423CD24FF0C5
:1051D000FF313848103C00F0EBFE60884FF4F55684
:1051E00010B12088B04219D033A000F029FA2388EA
:1051F0006288214637A000F023FA608828B940F27F
:10520000512212493FA0FFF7F5FE2088B04205D099
:1052100040F252220D493EA0FFF7ECFE00206080D4
:1052200026802869844200D22C61A9686068611ACE
:10523000401AA969081AA8612046FFF7CFFDBDE80A
:1052400070401C4800F06ABE70BD00004D7500083B
:1052500046756E6374696F6E5B25735D207368615C
:105260006C6C206E6F7420626520757365642069B4
:105270006E204953520A000030000000282828728E
:10528000745F75626173655F7429726D656D292045
:1052900026202852545F414C49474E5F53495A4596
:1052A000202D20312929203D3D2030002C000020D8
:1052B00000820008E8070020746F20667265652090
:1052C0006120626164206461746120626C6F636B51
:1052D0003A0A00006D656D3A203078253038782C18
:1052E000207573656420666C61673A2025642C2004
:1052F0006D6167696320636F64653A20307825309B
:1053000034780A006D656D2D3E757365640000008C
:105310006D656D2D3E6D61676963203D3D2048459B
:1053200041505F4D41474943000000007047000075
:1053300070B52F490546283009682C1D11B18847E2
:10534000002853D02BA0216C00F07AF92DA0616ABF
:1053500000F076F92FA0A16A00F072F931A0E16A9D
:1053600000F06EF933A0216B00F06AF935A0616896
:1053700000F066F937A0A16800F062F939A0E16891
:1053800000F05EF93BA0216900F05AF93DA0616987
:1053900000F056F93FA0A16900F052F941A0E1697F
:1053A00000F04EF943A0216A00F04AF945A0616B74
:1053B00000F046F947A0A16B00F042F949A0E16B6B
:1053C00000F03EF92878400706D501F007F90146BC
:1053D00048A000F035F902E04EA000F031F928783D
:1053E000C00602D452A000F02BF9FEE770BD000009
:1053F000040000207073723A203078253038780A23
:10540000000000007230303A203078253038780AB9
:10541000000000007230313A203078253038780AA8
:10542000000000007230323A203078253038780A97
:10543000000000007230333A203078253038780A86
:10544000000000007230343A203078253038780A75
:10545000000000007230353A203078253038780A64
:10546000000000007230363A203078253038780A53
:10547000000000007230373A203078253038780A42
:10548000000000007230383A203078253038780A31
:10549000000000007230393A203078253038780A20
:1054A000000000007231303A203078253038780A18
:1054B000000000007231313A203078253038780A07
:1054C000000000007231323A203078253038780AF6
:1054D00000000000206C723A203078253038780ABD
:1054E000000000002070633A203078253038780AB8
:1054F0000000000068617264206661756C74206F42
:105500006E207468726561643A2025730D0A0D0A75
:105510000000000068617264206661756C74206F21
:105520006E2068616E646C65720D0A0D0A000000E1
:1055300046505520616374697665210D0A000000AC
:1055400070B50446121D22F0070000220A4D4438AF
:1055500040F82250521C112AFAD341620021816284
:10556000C16200F13402016382E81A004FF08073D7
:105570000364016070BD0000EFBEADDE10B5FAF748
:1055800029FE064904460878401C0870486800B1A6
:1055900080472046BDE81040FAF720BE14000020E6
:1055A00010B5FAF717FE03490C78FAF717FE2046F4
:1055B00010BD00001400002010B5FAF70BFE0649DC
:1055C00004460878401E0870886800B1804720466D
:1055D000BDE81040FAF702BE1400002010B50068C4
:1055E000143800F0B5FF002010BD00002DE9F04197
:1055F000064614460D46084601F094F805F11407D6
:10560000B4B1012C18D134680EE000BF95F8351004
:1056100094F82120A4F11400914204D239461430A8
:1056200000F047F802E02468B442EFD1B44203D15D
:105630003946304600F03DF80020BDE8F08100001A
:105640000FB47F2170B505AB0D48049A01F08CFBB7
:1056500003467F2800D97F230A4D286860B1048B58
:10566000074A44F0400101830021FFF7F9FC286854
:10567000048370BC5DF814FB0148FFF757FEF8E7A0
:1056800068070020200000200268516002680A605C
:105690000160486070470268516002680A600160FA
:1056A000486070470268516002680A6001604860A3
:1056B00070474268116042684A6041600860704704
:1056C000D0E900124A60D0E9001211604060006029
:1056D0007047D0E900124A60D0E9001211604060C2
:1056E00000607047D0E900124A60D0E900121160F2
:1056F00040600060704700002DE9F047040019D0B9
:10570000FAF768FD0546FFF74BFF48B1534954A02F
:10571000FFF796FF4FF48C7250495BA0FFF76AFCCD
:105720002846FAF75BFDE41D24F00706574C606934
:10573000864202D90020BDE8F087102E00D2102644
:105740004FF0FF31524800F033FCA1682069D4F8D3
:1057500014C0421AACEB060379E08D186F88002F55
:1057600074D16F68BF1A103FB7426FD36B6806F1F0
:1057700020079B1A103B4FF001094FF4F55ABB422A
:105780002BD397191037CB194FF00008A3F800A0BE
:10579000A3F80280D5F80480C3E901826F60A5F800
:1057A00002905A680CF1100C624502D001F1080316
:1057B000D750A26932441032A261E369934200D209
:1057C000E261A5F800A085421AD1E268438863B17E
:1057D00090420AD040680844F8E7A5F802906A6849
:1057E0006B1AD21AA3691A44E6E72061904207D0E7
:1057F000408828B14FF4C172184926A0FFF7FAFB80
:10580000234800F08BFBA819E1681030884205D9C5
:105810004FF4C37211492948FFF7ECFB68070BD01E
:1058200040F287120D492648FFF7E4FB4FF4C4729B
:105830000A4924A0FFF7DEFB22681AB1314605F1C0
:105840001000904705F1100075E7FFE76A68934282
:1058500083D80F4800F062FB6CE700007475000805
:1058600046756E6374696F6E5B25735D2073686146
:105870006C6C206E6F74206265207573656420699E
:105880006E204953520A0000300000002C00002016
:10589000E807002028286C66726565203D3D206879
:1058A0006561705F656E6429207C7C2028216C66B0
:1058B0007265652D3E757365642929005C82000858
:1058C000B481000828282872745F75626173655F6F
:1058D00074296D656D292026202852545F414C495A
:1058E000474E5F53495A45202D20312929203D3DFF
:1058F0002030000010B50346CCB2042A1AD3810729
:1059000018D1194644EA042343EA034306E008C1D8
:10591000103A08C141F8083B41F8043C102AF6D27D
:1059200001E008C1121F042AFBD20B4602E000BFAF
:1059300003F8014B521EFBD210BD00002DE9F041CF
:105940000F460646FAF746FC0446FFF729FE48B123
:105950001E491FA0FFF774FE4FF4CC721B4926A00E
:10596000FFF748FB2046FAF739FC304600F0CAF84A
:10597000050005D14FF4CE72144920A0FFF73AFB81
:10598000E868FFF7B9FE04001ED00021EA68FFF7BF
:10599000B1FF26720020607208223946204600F0CE
:1059A000E6FB1C48016809B120468847FAF712FC5B
:1059B000064604F10C01281DFFF766FE3046FAF793
:1059C0000DFC2046BDE8F0810020FBE7A97500082A
:1059D00046756E6374696F6E5B25735D20736861D5
:1059E0006C6C206E6F74206265207573656420692D
:1059F0006E204953520A000030000000696E666F45
:105A0000726D6174696F6E20213D2052545F4E5556
:105A10004C4C00004C00002070B5040005D14FF440
:105A2000EB72114911A0FFF7E5FA207A000605D5BF
:105A300040F2D7120C4912A0FFF7DCFA1B4841686C
:105A400009B12046884700202072FAF7C3FB0546BB
:105A500004F10C00FFF734FE2846FAF7BFFB20469E
:105A6000BDE87040FFF77EBBBC7500086F626A65D9
:105A7000637420213D2052545F4E554C4C00000071
:105A800021286F626A6563742D3E747970652026E3
:105A90002052545F4F626A6563745F436C61737335
:105AA0005F53746174696329000000004C0000209A
:105AB00070B5040005D140F275120B490BA0FFF739
:105AC00099FA0F48416809B12046884700202072A2
:105AD000FAF780FB054604F10C00FFF7F1FD2846BC
